{
  "fileName": "TokenExchange.sol",
  "contractName": "TokenExchange",
  "source": "pragma solidity ^0.6.2;\n\n// import base initializable contract\nimport \"@openzeppelin/upgrades/contracts/Initializable.sol\";\n\n// import the IERC20 interface and the SafeMath library\nimport \"@openzeppelin/contracts-ethereum-package/contracts/token/ERC20/IERC20.sol\";\nimport \"@openzeppelin/contracts-ethereum-package/contracts/math/SafeMath.sol\";\n\ncontract TokenExchange is Initializable {\n\tusing SafeMath for uint256;\n\n\t// contract state: exchange rate and token\n\tuint256 public rate;\n\tIERC20 public token;\n\taddress public owner;\t\n\n\t// Initializer function (this replaces the constructor that would usially be here)\n\tfunction initialize(uint256 _rate, IERC20 _token) public initializer {\n\t\trate = _rate;\n\t\ttoken = _token;\n\t}\n\n\t// Send tokens back to the sender using predefined exchange rate\n\treceive() external payable {\n\t\tuint256 tokens = msg.value.mul(rate);\n\t\ttoken.transfer(msg.sender, tokens);\n\t}\n\t\n\tfunction withdraw() public {\n\t\trequire(\n\t\t\tmsg.sender == owner,\n\t\t\t\"Address not allowed to call this function\"\n\t\t);\n\t\tmsg.sender.transfer(address(this).balance);\n\t}\n\n\t// To be run during upgrades, ensures it cannot be called again\n\tfunction setOwner(address _owner) public {\n\t\trequire(owner == address(0), \"Owner already set, cannnot modify!\");\n\t\towner = _owner;\n\t}\n}\n\n",
  "sourcePath": "contracts/TokenExchange.sol",
  "abi": [
    {
      "inputs": [
        {
          "internalType": "uint256",
          "name": "_rate",
          "type": "uint256"
        },
        {
          "internalType": "contract IERC20",
          "name": "_token",
          "type": "address"
        }
      ],
      "name": "initialize",
      "outputs": [],
      "stateMutability": "nonpayable",
      "type": "function"
    },
    {
      "inputs": [],
      "name": "owner",
      "outputs": [
        {
          "internalType": "address",
          "name": "",
          "type": "address"
        }
      ],
      "stateMutability": "view",
      "type": "function"
    },
    {
      "inputs": [],
      "name": "rate",
      "outputs": [
        {
          "internalType": "uint256",
          "name": "",
          "type": "uint256"
        }
      ],
      "stateMutability": "view",
      "type": "function"
    },
    {
      "inputs": [
        {
          "internalType": "address",
          "name": "_owner",
          "type": "address"
        }
      ],
      "name": "setOwner",
      "outputs": [],
      "stateMutability": "nonpayable",
      "type": "function"
    },
    {
      "inputs": [],
      "name": "token",
      "outputs": [
        {
          "internalType": "contract IERC20",
          "name": "",
          "type": "address"
        }
      ],
      "stateMutability": "view",
      "type": "function"
    },
    {
      "inputs": [],
      "name": "withdraw",
      "outputs": [],
      "stateMutability": "nonpayable",
      "type": "function"
    },
    {
      "stateMutability": "payable",
      "type": "receive"
    }
  ],
  "bytecode": "0x608060405234801561001057600080fd5b506107b6806100206000396000f3fe6080604052600436106100595760003560e01c806313af40351461014e5780632c4e722e1461019f5780633ccfd60b146101ca5780638da5cb5b146101e1578063da35a26f14610222578063fc0c546a1461027d57610149565b36610149576000610075603354346102be90919063ffffffff16565b9050603460009054906101000a900473ffffffffffffffffffffffffffffffffffffffff1673ffffffffffffffffffffffffffffffffffffffff1663a9059cbb33836040518363ffffffff1660e01b8152600401808373ffffffffffffffffffffffffffffffffffffffff16815260200182815260200192505050602060405180830381600087803b15801561010a57600080fd5b505af115801561011e573d6000803e3d6000fd5b505050506040513d602081101561013457600080fd5b81019080805190602001909291905050505050005b600080fd5b34801561015a57600080fd5b5061019d6004803603602081101561017157600080fd5b81019080803573ffffffffffffffffffffffffffffffffffffffff169060200190929190505050610344565b005b3480156101ab57600080fd5b506101b461042f565b6040518082815260200191505060405180910390f35b3480156101d657600080fd5b506101df610435565b005b3480156101ed57600080fd5b506101f661053b565b604051808273ffffffffffffffffffffffffffffffffffffffff16815260200191505060405180910390f35b34801561022e57600080fd5b5061027b6004803603604081101561024557600080fd5b8101908080359060200190929190803573ffffffffffffffffffffffffffffffffffffffff169060200190929190505050610561565b005b34801561028957600080fd5b506102926106a9565b604051808273ffffffffffffffffffffffffffffffffffffffff16815260200191505060405180910390f35b6000808314156102d1576000905061033e565b60008284029050828482816102e257fe5b0414610339576040517f08c379a00000000000000000000000000000000000000000000000000000000081526004018080602001828103825260218152602001806107326021913960400191505060405180910390fd5b809150505b92915050565b600073ffffffffffffffffffffffffffffffffffffffff16603560009054906101000a900473ffffffffffffffffffffffffffffffffffffffff1673ffffffffffffffffffffffffffffffffffffffff16146103eb576040517f08c379a00000000000000000000000000000000000000000000000000000000081526004018080602001828103825260228152602001806106e76022913960400191505060405180910390fd5b80603560006101000a81548173ffffffffffffffffffffffffffffffffffffffff021916908373ffffffffffffffffffffffffffffffffffffffff16021790555050565b60335481565b603560009054906101000a900473ffffffffffffffffffffffffffffffffffffffff1673ffffffffffffffffffffffffffffffffffffffff163373ffffffffffffffffffffffffffffffffffffffff16146104db576040517f08c379a00000000000000000000000000000000000000000000000000000000081526004018080602001828103825260298152602001806107096029913960400191505060405180910390fd5b3373ffffffffffffffffffffffffffffffffffffffff166108fc3073ffffffffffffffffffffffffffffffffffffffff16319081150290604051600060405180830381858888f19350505050158015610538573d6000803e3d6000fd5b50565b603560009054906101000a900473ffffffffffffffffffffffffffffffffffffffff1681565b600060019054906101000a900460ff1680610580575061057f6106cf565b5b80610596575060008054906101000a900460ff16155b6105eb576040517f08c379a000000000000000000000000000000000000000000000000000000000815260040180806020018281038252602e815260200180610753602e913960400191505060405180910390fd5b60008060019054906101000a900460ff16159050801561063b576001600060016101000a81548160ff02191690831515021790555060016000806101000a81548160ff0219169083151502179055505b8260338190555081603460006101000a81548173ffffffffffffffffffffffffffffffffffffffff021916908373ffffffffffffffffffffffffffffffffffffffff16021790555080156106a45760008060016101000a81548160ff0219169083151502179055505b505050565b603460009054906101000a900473ffffffffffffffffffffffffffffffffffffffff1681565b6000803090506000813b905060008114925050509056fe4f776e657220616c7265616479207365742c2063616e6e6e6f74206d6f646966792141646472657373206e6f7420616c6c6f77656420746f2063616c6c20746869732066756e6374696f6e536166654d6174683a206d756c7469706c69636174696f6e206f766572666c6f77436f6e747261637420696e7374616e63652068617320616c7265616479206265656e20696e697469616c697a6564a2646970667358221220fbc390fc45b6525520fcf73e7caa06694b2801f96d879044047308103924e17664736f6c634300060c0033",
  "compiler": {
    "name": "solc",
    "version": "0.6.12+commit.27d51765.Emscripten.clang",
    "optimizer": {
      "enabled": false,
      "runs": 200
    },
    "evmVersion": "petersburg"
  }
}