{
  "fileName": "TokenExchange.sol",
  "contractName": "TokenExchange",
  "source": "pragma solidity ^0.6.2;\n\n// import base initializable contract\nimport \"@openzeppelin/upgrades/contracts/Initializable.sol\";\n\n// import the IERC20 interface and the SafeMath library\nimport \"@openzeppelin/contracts-ethereum-package/contracts/token/ERC20/IERC20.sol\";\nimport \"@openzeppelin/contracts-ethereum-package/contracts/math/SafeMath.sol\";\n\ncontract TokenExchange is Initializable {\n\tusing SafeMath for uint256;\n\n\t// contract state: exchange rate and token\n\tuint256 public rate;\n\tIERC20 public token;\n\n\t// Initializer function (this replaces the constructor that would usially be here)\n\tfunction initialize(uint256 _rate, IERC20 _token) public initializer {\n\t\trate = _rate;\n\t\ttoken = _token;\n\t}\n\n\t// Send tokens back to the sender using predefined exchange rate\n\treceive() external payable {\n\t\tuint256 tokens = msg.value.mul(rate);\n\t\ttoken.transfer(msg.sender, tokens);\n\t}\n}\n\n",
  "sourcePath": "contracts/TokenExchange.sol",
  "abi": [
    {
      "inputs": [
        {
          "internalType": "uint256",
          "name": "_rate",
          "type": "uint256"
        },
        {
          "internalType": "contract IERC20",
          "name": "_token",
          "type": "address"
        }
      ],
      "name": "initialize",
      "outputs": [],
      "stateMutability": "nonpayable",
      "type": "function"
    },
    {
      "inputs": [],
      "name": "rate",
      "outputs": [
        {
          "internalType": "uint256",
          "name": "",
          "type": "uint256"
        }
      ],
      "stateMutability": "view",
      "type": "function"
    },
    {
      "inputs": [],
      "name": "token",
      "outputs": [
        {
          "internalType": "contract IERC20",
          "name": "",
          "type": "address"
        }
      ],
      "stateMutability": "view",
      "type": "function"
    },
    {
      "stateMutability": "payable",
      "type": "receive"
    }
  ],
  "bytecode": "0x608060405234801561001057600080fd5b5061048a806100206000396000f3fe6080604052600436106100385760003560e01c80632c4e722e1461012d578063da35a26f14610158578063fc0c546a146101b357610128565b36610128576000610054603354346101f490919063ffffffff16565b9050603460009054906101000a900473ffffffffffffffffffffffffffffffffffffffff1673ffffffffffffffffffffffffffffffffffffffff1663a9059cbb33836040518363ffffffff1660e01b8152600401808373ffffffffffffffffffffffffffffffffffffffff16815260200182815260200192505050602060405180830381600087803b1580156100e957600080fd5b505af11580156100fd573d6000803e3d6000fd5b505050506040513d602081101561011357600080fd5b81019080805190602001909291905050505050005b600080fd5b34801561013957600080fd5b5061014261027a565b6040518082815260200191505060405180910390f35b34801561016457600080fd5b506101b16004803603604081101561017b57600080fd5b8101908080359060200190929190803573ffffffffffffffffffffffffffffffffffffffff169060200190929190505050610280565b005b3480156101bf57600080fd5b506101c86103c8565b604051808273ffffffffffffffffffffffffffffffffffffffff16815260200191505060405180910390f35b6000808314156102075760009050610274565b600082840290508284828161021857fe5b041461026f576040517f08c379a00000000000000000000000000000000000000000000000000000000081526004018080602001828103825260218152602001806104066021913960400191505060405180910390fd5b809150505b92915050565b60335481565b600060019054906101000a900460ff168061029f575061029e6103ee565b5b806102b5575060008054906101000a900460ff16155b61030a576040517f08c379a000000000000000000000000000000000000000000000000000000000815260040180806020018281038252602e815260200180610427602e913960400191505060405180910390fd5b60008060019054906101000a900460ff16159050801561035a576001600060016101000a81548160ff02191690831515021790555060016000806101000a81548160ff0219169083151502179055505b8260338190555081603460006101000a81548173ffffffffffffffffffffffffffffffffffffffff021916908373ffffffffffffffffffffffffffffffffffffffff16021790555080156103c35760008060016101000a81548160ff0219169083151502179055505b505050565b603460009054906101000a900473ffffffffffffffffffffffffffffffffffffffff1681565b6000803090506000813b905060008114925050509056fe536166654d6174683a206d756c7469706c69636174696f6e206f766572666c6f77436f6e747261637420696e7374616e63652068617320616c7265616479206265656e20696e697469616c697a6564a2646970667358221220109c278a74616663e2344bddea770247b9c87edf4e579236c6665bbe9149727364736f6c634300060c0033",
  "compiler": {
    "name": "solc",
    "version": "0.6.12+commit.27d51765.Emscripten.clang",
    "optimizer": {
      "enabled": false,
      "runs": 200
    },
    "evmVersion": "petersburg"
  }
}